{
    "_format": "hh-sol-artifact-1",
    "contractName": "EduVerify",
    "sourceName": "contracts/EduVerify.sol",
    "abi": [
        {
            "inputs": [],
            "stateMutability": "nonpayable",
            "type": "constructor"
        },
        {
            "anonymous": false,
            "inputs": [
                {
                    "indexed": true,
                    "internalType": "address",
                    "name": "student",
                    "type": "address"
                },
                {
                    "indexed": false,
                    "internalType": "string",
                    "name": "course",
                    "type": "string"
                },
                {
                    "indexed": false,
                    "internalType": "string",
                    "name": "institution",
                    "type": "string"
                }
            ],
            "name": "CredentialIssued",
            "type": "event"
        },
        {
            "anonymous": false,
            "inputs": [
                {
                    "indexed": true,
                    "internalType": "address",
                    "name": "student",
                    "type": "address"
                }
            ],
            "name": "CredentialRevoked",
            "type": "event"
        },
        {
            "inputs": [],
            "name": "admin",
            "outputs": [
                {
                    "internalType": "address",
                    "name": "",
                    "type": "address"
                }
            ],
            "stateMutability": "view",
            "type": "function"
        },
        {
            "inputs": [
                {
                    "internalType": "address",
                    "name": "",
                    "type": "address"
                }
            ],
            "name": "credentials",
            "outputs": [
                {
                    "internalType": "string",
                    "name": "studentName",
                    "type": "string"
                },
                {
                    "internalType": "string",
                    "name": "course",
                    "type": "string"
                },
                {
                    "internalType": "string",
                    "name": "institution",
                    "type": "string"
                },
                {
                    "internalType": "uint256",
                    "name": "issueDate",
                    "type": "uint256"
                },
                {
                    "internalType": "bool",
                    "name": "isValid",
                    "type": "bool"
                }
            ],
            "stateMutability": "view",
            "type": "function"
        },
        {
            "inputs": [
                {
                    "internalType": "address",
                    "name": "student",
                    "type": "address"
                }
            ],
            "name": "hasCredential",
            "outputs": [
                {
                    "internalType": "bool",
                    "name": "",
                    "type": "bool"
                }
            ],
            "stateMutability": "view",
            "type": "function"
        },
        {
            "inputs": [
                {
                    "internalType": "address",
                    "name": "student",
                    "type": "address"
                },
                {
                    "internalType": "string",
                    "name": "name",
                    "type": "string"
                },
                {
                    "internalType": "string",
                    "name": "course",
                    "type": "string"
                },
                {
                    "internalType": "string",
                    "name": "institution",
                    "type": "string"
                }
            ],
            "name": "issueCredential",
            "outputs": [],
            "stateMutability": "nonpayable",
            "type": "function"
        },
        {
            "inputs": [
                {
                    "internalType": "address",
                    "name": "student",
                    "type": "address"
                }
            ],
            "name": "revokeCredential",
            "outputs": [],
            "stateMutability": "nonpayable",
            "type": "function"
        },
        {
            "inputs": [
                {
                    "internalType": "address",
                    "name": "student",
                    "type": "address"
                }
            ],
            "name": "verifyCredential",
            "outputs": [
                {
                    "internalType": "string",
                    "name": "",
                    "type": "string"
                },
                {
                    "internalType": "string",
                    "name": "",
                    "type": "string"
                },
                {
                    "internalType": "string",
                    "name": "",
                    "type": "string"
                },
                {
                    "internalType": "uint256",
                    "name": "",
                    "type": "uint256"
                },
                {
                    "internalType": "bool",
                    "name": "",
                    "type": "bool"
                }
            ],
            "stateMutability": "view",
            "type": "function"
        }
    ],
    "bytecode": "0x608060405234801561001057600080fd5b5033600160006101000a81548173ffffffffffffffffffffffffffffffffffffffff021916908373ffffffffffffffffffffffffffffffffffffffff160217905550610fb2806100616000396000f3fe608060405234801561001057600080fd5b50600436106100625760003560e01c8063049a380d146100675780631dee2fdf146100835780636016dd4a1461009f57806370dd0dbc146100d3578063c1c773f414610107578063f851a44014610137575b600080fd5b610081600480360381019061007c9190610b51565b610155565b005b61009d60048036038101906100989190610b28565b610327565b005b6100b960048036038101906100b49190610b28565b610457565b6040516100ca959493929190610d35565b60405180910390f35b6100ed60048036038101906100e89190610b28565b610632565b6040516100fe959493929190610d35565b60405180910390f35b610121600480360381019061011c9190610b28565b610994565b60405161012e9190610ce3565b60405180910390f35b61013f6109e2565b60405161014c9190610cc8565b60405180910390f35b600160009054906101000a900473ffffffffffffffffffffffffffffffffffffffff1673ffffffffffffffffffffffffffffffffffffffff163373ffffffffffffffffffffffffffffffffffffffff16146101e5576040517f08c379a00000000000000000000000000000000000000000000000000000000081526004016101dc90610d9d565b60405180910390fd5b6040518060a00160405280848152602001838152602001828152602001428152602001600115158152506000808673ffffffffffffffffffffffffffffffffffffffff1673ffffffffffffffffffffffffffffffffffffffff1681526020019081526020016000206000820151816000019080519060200190610269929190610a08565b506020820151816001019080519060200190610286929190610a08565b5060408201518160020190805190602001906102a3929190610a08565b506060820151816003015560808201518160040160006101000a81548160ff0219169083151502179055509050508373ffffffffffffffffffffffffffffffffffffffff167f5e47cc5e78fcec6fad5ce55daef3ac5f5aaf88a7910c1b7bffcf5170dd15232a8383604051610319929190610cfe565b60405180910390a250505050565b600160009054906101000a900473ffffffffffffffffffffffffffffffffffffffff1673ffffffffffffffffffffffffffffffffffffffff163373ffffffffffffffffffffffffffffffffffffffff16146103b7576040517f08c379a00000000000000000000000000000000000000000000000000000000081526004016103ae90610d9d565b60405180910390fd5b60008060008373ffffffffffffffffffffffffffffffffffffffff1673ffffffffffffffffffffffffffffffffffffffff16815260200190815260200160002060040160006101000a81548160ff0219169083151502179055508073ffffffffffffffffffffffffffffffffffffffff167f4fc96fe98b4271e4b4b55ada79755e0e3fe3f648a2857c2de602e83a25a8ee5760405160405180910390a250565b600060205280600052604060002060009150905080600001805461047a90610ec4565b80601f01602080910402602001604051908101604052809291908181526020018280546104a690610ec4565b80156104f35780601f106104c8576101008083540402835291602001916104f3565b820191906000526020600020905b8154815290600101906020018083116104d657829003601f168201915b50505050509080600101805461050890610ec4565b80601f016020809104026020016040519081016040528092919081815260200182805461053490610ec4565b80156105815780601f1061055657610100808354040283529160200191610581565b820191906000526020600020905b81548152906001019060200180831161056457829003601f168201915b50505050509080600201805461059690610ec4565b80601f01602080910402602001604051908101604052809291908181526020018280546105c290610ec4565b801561060f5780601f106105e45761010080835404028352916020019161060f565b820191906000526020600020905b8154815290600101906020018083116105f257829003601f168201915b5050505050908060030154908060040160009054906101000a900460ff16905085565b606080606060008060008060008873ffffffffffffffffffffffffffffffffffffffff1673ffffffffffffffffffffffffffffffffffffffff16815260200190815260200160002060030154141561073e576000806040518060400160405280600d81526020017f4e6f2043726564656e7469616c0000000000000000000000000000000000000081525091906040518060400160405280600381526020017f4e2f41000000000000000000000000000000000000000000000000000000000081525091906040518060400160405280600381526020017f4e2f41000000000000000000000000000000000000000000000000000000000081525091909450945094509450945061098b565b60008060008873ffffffffffffffffffffffffffffffffffffffff1673ffffffffffffffffffffffffffffffffffffffff1681526020019081526020016000206040518060a001604052908160008201805461079990610ec4565b80601f01602080910402602001604051908101604052809291908181526020018280546107c590610ec4565b80156108125780601f106107e757610100808354040283529160200191610812565b820191906000526020600020905b8154815290600101906020018083116107f557829003601f168201915b5050505050815260200160018201805461082b90610ec4565b80601f016020809104026020016040519081016040528092919081815260200182805461085790610ec4565b80156108a45780601f10610879576101008083540402835291602001916108a4565b820191906000526020600020905b81548152906001019060200180831161088757829003601f168201915b505050505081526020016002820180546108bd90610ec4565b80601f01602080910402602001604051908101604052809291908181526020018280546108e990610ec4565b80156109365780601f1061090b57610100808354040283529160200191610936565b820191906000526020600020905b81548152906001019060200180831161091957829003601f168201915b50505050508152602001600382015481526020016004820160009054906101000a900460ff16151515158152505090508060000151816020015182604001518360600151846080015195509550955095509550505b91939590929450565b6000806000808473ffffffffffffffffffffffffffffffffffffffff1673ffffffffffffffffffffffffffffffffffffffff1681526020019081526020016000206003015414159050919050565b600160009054906101000a900473ffffffffffffffffffffffffffffffffffffffff1681565b828054610a1490610ec4565b90600052602060002090601f016020900481019282610a365760008555610a7d565b82601f10610a4f57805160ff1916838001178555610a7d565b82800160010185558215610a7d579182015b82811115610a7c578251825591602001919060010190610a61565b5b509050610a8a9190610a8e565b5090565b5b80821115610aa7576000816000905550600101610a8f565b5090565b6000610abe610ab984610dee565b610dbd565b905082815260208101848484011115610ad657600080fd5b610ae1848285610e82565b509392505050565b600081359050610af881610f65565b92915050565b600082601f830112610b0f57600080fd5b8135610b1f848260208601610aab565b91505092915050565b600060208284031215610b3a57600080fd5b6000610b4884828501610ae9565b91505092915050565b60008060008060808587031215610b6757600080fd5b6000610b7587828801610ae9565b945050602085013567ffffffffffffffff811115610b9257600080fd5b610b9e87828801610afe565b935050604085013567ffffffffffffffff811115610bbb57600080fd5b610bc787828801610afe565b925050606085013567ffffffffffffffff811115610be457600080fd5b610bf087828801610afe565b91505092959194509250565b610c0581610e3a565b82525050565b610c1481610e4c565b82525050565b6000610c2582610e1e565b610c2f8185610e29565b9350610c3f818560208601610e91565b610c4881610f54565b840191505092915050565b6000610c60602283610e29565b91507f4f6e6c792061646d696e2063616e20706572666f726d2074686973206163746960008301527f6f6e0000000000000000000000000000000000000000000000000000000000006020830152604082019050919050565b610cc281610e78565b82525050565b6000602082019050610cdd6000830184610bfc565b92915050565b6000602082019050610cf86000830184610c0b565b92915050565b60006040820190508181036000830152610d188185610c1a565b90508181036020830152610d2c8184610c1a565b90509392505050565b600060a0820190508181036000830152610d4f8188610c1a565b90508181036020830152610d638187610c1a565b90508181036040830152610d778186610c1a565b9050610d866060830185610cb9565b610d936080830184610c0b565b9695505050505050565b60006020820190508181036000830152610db681610c53565b9050919050565b6000604051905081810181811067ffffffffffffffff82111715610de457610de3610f25565b5b8060405250919050565b600067ffffffffffffffff821115610e0957610e08610f25565b5b601f19601f8301169050602081019050919050565b600081519050919050565b600082825260208201905092915050565b6000610e4582610e58565b9050919050565b60008115159050919050565b600073ffffffffffffffffffffffffffffffffffffffff82169050919050565b6000819050919050565b82818337600083830152505050565b60005b83811015610eaf578082015181840152602081019050610e94565b83811115610ebe576000848401525b50505050565b60006002820490506001821680610edc57607f821691505b60208210811415610ef057610eef610ef6565b5b50919050565b7f4e487b7100000000000000000000000000000000000000000000000000000000600052602260045260246000fd5b7f4e487b7100000000000000000000000000000000000000000000000000000000600052604160045260246000fd5b6000601f19601f8301169050919050565b610f6e81610e3a565b8114610f7957600080fd5b5056fea26469706673582212201ac072ead71d8f1209ab97a17253d285e2624dbdd1202c6ceeb79fe52304cf9164736f6c63430008000033",
    "linkReferences": {},
    "deployedLinkReferences": {}
}