{
  "_format": "hh-sol-artifact-1",
  "contractName": "CredentialVerificationRequest",
  "sourceName": "contracts/CredentialVerificationRequest.sol",
  "abi": [
    {
      "inputs": [
        {
          "internalType": "address",
          "name": "_admin",
          "type": "address"
        }
      ],
      "stateMutability": "nonpayable",
      "type": "constructor"
    },
    {
      "anonymous": false,
      "inputs": [
        {
          "indexed": false,
          "internalType": "uint256",
          "name": "id",
          "type": "uint256"
        },
        {
          "indexed": false,
          "internalType": "address",
          "name": "requester",
          "type": "address"
        },
        {
          "indexed": false,
          "internalType": "string",
          "name": "srn",
          "type": "string"
        }
      ],
      "name": "RequestCreated",
      "type": "event"
    },
    {
      "anonymous": false,
      "inputs": [
        {
          "indexed": false,
          "internalType": "uint256",
          "name": "id",
          "type": "uint256"
        },
        {
          "indexed": false,
          "internalType": "enum CredentialVerificationRequest.Status",
          "name": "status",
          "type": "uint8"
        }
      ],
      "name": "RequestUpdated",
      "type": "event"
    },
    {
      "inputs": [],
      "name": "admin",
      "outputs": [
        {
          "internalType": "address",
          "name": "",
          "type": "address"
        }
      ],
      "stateMutability": "view",
      "type": "function"
    },
    {
      "inputs": [
        {
          "internalType": "string",
          "name": "srn",
          "type": "string"
        },
        {
          "internalType": "string",
          "name": "purpose",
          "type": "string"
        }
      ],
      "name": "createRequest",
      "outputs": [],
      "stateMutability": "nonpayable",
      "type": "function"
    },
    {
      "inputs": [
        {
          "internalType": "uint256",
          "name": "requestId",
          "type": "uint256"
        }
      ],
      "name": "getRequest",
      "outputs": [
        {
          "components": [
            {
              "internalType": "address",
              "name": "requester",
              "type": "address"
            },
            {
              "internalType": "string",
              "name": "srn",
              "type": "string"
            },
            {
              "internalType": "string",
              "name": "purpose",
              "type": "string"
            },
            {
              "internalType": "enum CredentialVerificationRequest.Status",
              "name": "status",
              "type": "uint8"
            },
            {
              "internalType": "uint256",
              "name": "timestamp",
              "type": "uint256"
            }
          ],
          "internalType": "struct CredentialVerificationRequest.Request",
          "name": "",
          "type": "tuple"
        }
      ],
      "stateMutability": "view",
      "type": "function"
    },
    {
      "inputs": [],
      "name": "requestCount",
      "outputs": [
        {
          "internalType": "uint256",
          "name": "",
          "type": "uint256"
        }
      ],
      "stateMutability": "view",
      "type": "function"
    },
    {
      "inputs": [
        {
          "internalType": "uint256",
          "name": "",
          "type": "uint256"
        }
      ],
      "name": "requests",
      "outputs": [
        {
          "internalType": "address",
          "name": "requester",
          "type": "address"
        },
        {
          "internalType": "string",
          "name": "srn",
          "type": "string"
        },
        {
          "internalType": "string",
          "name": "purpose",
          "type": "string"
        },
        {
          "internalType": "enum CredentialVerificationRequest.Status",
          "name": "status",
          "type": "uint8"
        },
        {
          "internalType": "uint256",
          "name": "timestamp",
          "type": "uint256"
        }
      ],
      "stateMutability": "view",
      "type": "function"
    },
    {
      "inputs": [
        {
          "internalType": "uint256",
          "name": "requestId",
          "type": "uint256"
        },
        {
          "internalType": "enum CredentialVerificationRequest.Status",
          "name": "status",
          "type": "uint8"
        }
      ],
      "name": "updateRequestStatus",
      "outputs": [],
      "stateMutability": "nonpayable",
      "type": "function"
    }
  ],
  "bytecode": "0x60806040523480156200001157600080fd5b506040516200139f3803806200139f8339818101604052810190620000379190620000e8565b806000806101000a81548173ffffffffffffffffffffffffffffffffffffffff021916908373ffffffffffffffffffffffffffffffffffffffff160217905550506200011a565b600080fd5b600073ffffffffffffffffffffffffffffffffffffffff82169050919050565b6000620000b08262000083565b9050919050565b620000c281620000a3565b8114620000ce57600080fd5b50565b600081519050620000e281620000b7565b92915050565b6000602082840312156200010157620001006200007e565b5b60006200011184828501620000d1565b91505092915050565b611275806200012a6000396000f3fe608060405234801561001057600080fd5b50600436106100625760003560e01c80635923e87d146100675780635badbe4c1461008357806381d12c58146100a1578063c58343ef146100d5578063df89f81914610105578063f851a44014610121575b600080fd5b610081600480360381019061007c919061088d565b61013f565b005b61008b61028c565b60405161009891906108dc565b60405180910390f35b6100bb60048036038101906100b691906108f7565b610292565b6040516100cc959493929190610a6c565b60405180910390f35b6100ef60048036038101906100ea91906108f7565b610405565b6040516100fc9190610bc1565b60405180910390f35b61011f600480360381019061011a9190610d18565b610635565b005b6101296107a3565b6040516101369190610d90565b60405180910390f35b60008054906101000a900473ffffffffffffffffffffffffffffffffffffffff1673ffffffffffffffffffffffffffffffffffffffff163373ffffffffffffffffffffffffffffffffffffffff16146101cd576040517f08c379a00000000000000000000000000000000000000000000000000000000081526004016101c490610df7565b60405180910390fd5b6002548210610211576040517f08c379a000000000000000000000000000000000000000000000000000000000815260040161020890610e63565b60405180910390fd5b806001600084815260200190815260200160002060030160006101000a81548160ff0219169083600281111561024a576102496109f5565b5b02179055507f3f3f4d162c25e72bc6e149de1b0746e0d28e97eba3128ce0f7b9b37ba94de4438282604051610280929190610e83565b60405180910390a15050565b60025481565b60016020528060005260406000206000915090508060000160009054906101000a900473ffffffffffffffffffffffffffffffffffffffff16908060010180546102db90610edb565b80601f016020809104026020016040519081016040528092919081815260200182805461030790610edb565b80156103545780601f1061032957610100808354040283529160200191610354565b820191906000526020600020905b81548152906001019060200180831161033757829003601f168201915b50505050509080600201805461036990610edb565b80601f016020809104026020016040519081016040528092919081815260200182805461039590610edb565b80156103e25780601f106103b7576101008083540402835291602001916103e2565b820191906000526020600020905b8154815290600101906020018083116103c557829003601f168201915b5050505050908060030160009054906101000a900460ff16908060040154905085565b61040d6107c7565b6002548210610451576040517f08c379a000000000000000000000000000000000000000000000000000000000815260040161044890610e63565b60405180910390fd5b600160008381526020019081526020016000206040518060a00160405290816000820160009054906101000a900473ffffffffffffffffffffffffffffffffffffffff1673ffffffffffffffffffffffffffffffffffffffff1673ffffffffffffffffffffffffffffffffffffffff1681526020016001820180546104d590610edb565b80601f016020809104026020016040519081016040528092919081815260200182805461050190610edb565b801561054e5780601f106105235761010080835404028352916020019161054e565b820191906000526020600020905b81548152906001019060200180831161053157829003601f168201915b5050505050815260200160028201805461056790610edb565b80601f016020809104026020016040519081016040528092919081815260200182805461059390610edb565b80156105e05780601f106105b5576101008083540402835291602001916105e0565b820191906000526020600020905b8154815290600101906020018083116105c357829003601f168201915b505050505081526020016003820160009054906101000a900460ff16600281111561060e5761060d6109f5565b5b60028111156106205761061f6109f5565b5b81526020016004820154815250509050919050565b6040518060a001604052803373ffffffffffffffffffffffffffffffffffffffff1681526020018381526020018281526020016000600281111561067c5761067b6109f5565b5b81526020014281525060016000600254815260200190815260200160002060008201518160000160006101000a81548173ffffffffffffffffffffffffffffffffffffffff021916908373ffffffffffffffffffffffffffffffffffffffff16021790555060208201518160010190816106f691906110b8565b50604082015181600201908161070c91906110b8565b5060608201518160030160006101000a81548160ff02191690836002811115610738576107376109f5565b5b0217905550608082015181600401559050507f98211bd435874dca36f94fe4bd56dc2d934b75c5c6bcab9f7e7b079addc48b4e600254338460405161077f9392919061118a565b60405180910390a16002600081548092919061079a906111f7565b91905055505050565b60008054906101000a900473ffffffffffffffffffffffffffffffffffffffff1681565b6040518060a00160405280600073ffffffffffffffffffffffffffffffffffffffff168152602001606081526020016060815260200160006002811115610811576108106109f5565b5b8152602001600081525090565b6000604051905090565b600080fd5b600080fd5b6000819050919050565b61084581610832565b811461085057600080fd5b50565b6000813590506108628161083c565b92915050565b6003811061087557600080fd5b50565b60008135905061088781610868565b92915050565b600080604083850312156108a4576108a3610828565b5b60006108b285828601610853565b92505060206108c385828601610878565b9150509250929050565b6108d681610832565b82525050565b60006020820190506108f160008301846108cd565b92915050565b60006020828403121561090d5761090c610828565b5b600061091b84828501610853565b91505092915050565b600073ffffffffffffffffffffffffffffffffffffffff82169050919050565b600061094f82610924565b9050919050565b61095f81610944565b82525050565b600081519050919050565b600082825260208201905092915050565b60005b8381101561099f578082015181840152602081019050610984565b60008484015250505050565b6000601f19601f8301169050919050565b60006109c782610965565b6109d18185610970565b93506109e1818560208601610981565b6109ea816109ab565b840191505092915050565b7f4e487b7100000000000000000000000000000000000000000000000000000000600052602160045260246000fd5b60038110610a3557610a346109f5565b5b50565b6000819050610a4682610a24565b919050565b6000610a5682610a38565b9050919050565b610a6681610a4b565b82525050565b600060a082019050610a816000830188610956565b8181036020830152610a9381876109bc565b90508181036040830152610aa781866109bc565b9050610ab66060830185610a5d565b610ac360808301846108cd565b9695505050505050565b610ad681610944565b82525050565b600082825260208201905092915050565b6000610af882610965565b610b028185610adc565b9350610b12818560208601610981565b610b1b816109ab565b840191505092915050565b610b2f81610a4b565b82525050565b610b3e81610832565b82525050565b600060a083016000830151610b5c6000860182610acd565b5060208301518482036020860152610b748282610aed565b91505060408301518482036040860152610b8e8282610aed565b9150506060830151610ba36060860182610b26565b506080830151610bb66080860182610b35565b508091505092915050565b60006020820190508181036000830152610bdb8184610b44565b905092915050565b600080fd5b600080fd5b7f4e487b7100000000000000000000000000000000000000000000000000000000600052604160045260246000fd5b610c25826109ab565b810181811067ffffffffffffffff82111715610c4457610c43610bed565b5b80604052505050565b6000610c5761081e565b9050610c638282610c1c565b919050565b600067ffffffffffffffff821115610c8357610c82610bed565b5b610c8c826109ab565b9050602081019050919050565b82818337600083830152505050565b6000610cbb610cb684610c68565b610c4d565b905082815260208101848484011115610cd757610cd6610be8565b5b610ce2848285610c99565b509392505050565b600082601f830112610cff57610cfe610be3565b5b8135610d0f848260208601610ca8565b91505092915050565b60008060408385031215610d2f57610d2e610828565b5b600083013567ffffffffffffffff811115610d4d57610d4c61082d565b5b610d5985828601610cea565b925050602083013567ffffffffffffffff811115610d7a57610d7961082d565b5b610d8685828601610cea565b9150509250929050565b6000602082019050610da56000830184610956565b92915050565b7f4f6e6c792061646d696e2063616e207570646174652073746174757300000000600082015250565b6000610de1601c83610970565b9150610dec82610dab565b602082019050919050565b60006020820190508181036000830152610e1081610dd4565b9050919050565b7f496e76616c696420726571756573742049440000000000000000000000000000600082015250565b6000610e4d601283610970565b9150610e5882610e17565b602082019050919050565b60006020820190508181036000830152610e7c81610e40565b9050919050565b6000604082019050610e9860008301856108cd565b610ea56020830184610a5d565b9392505050565b7f4e487b7100000000000000000000000000000000000000000000000000000000600052602260045260246000fd5b60006002820490506001821680610ef357607f821691505b602082108103610f0657610f05610eac565b5b50919050565b60008190508160005260206000209050919050565b60006020601f8301049050919050565b600082821b905092915050565b600060088302610f6e7fffffffffffffffffffffffffffffffffffffffffffffffffffffffffffffffff82610f31565b610f788683610f31565b95508019841693508086168417925050509392505050565b6000819050919050565b6000610fb5610fb0610fab84610832565b610f90565b610832565b9050919050565b6000819050919050565b610fcf83610f9a565b610fe3610fdb82610fbc565b848454610f3e565b825550505050565b600090565b610ff8610feb565b611003818484610fc6565b505050565b5b818110156110275761101c600082610ff0565b600181019050611009565b5050565b601f82111561106c5761103d81610f0c565b61104684610f21565b81016020851015611055578190505b61106961106185610f21565b830182611008565b50505b505050565b600082821c905092915050565b600061108f60001984600802611071565b1980831691505092915050565b60006110a8838361107e565b9150826002028217905092915050565b6110c182610965565b67ffffffffffffffff8111156110da576110d9610bed565b5b6110e48254610edb565b6110ef82828561102b565b600060209050601f8311600181146111225760008415611110578287015190505b61111a858261109c565b865550611182565b601f19841661113086610f0c565b60005b8281101561115857848901518255600182019150602085019450602081019050611133565b868310156111755784890151611171601f89168261107e565b8355505b6001600288020188555050505b505050505050565b600060608201905061119f60008301866108cd565b6111ac6020830185610956565b81810360408301526111be81846109bc565b9050949350505050565b7f4e487b7100000000000000000000000000000000000000000000000000000000600052601160045260246000fd5b600061120282610832565b91507fffffffffffffffffffffffffffffffffffffffffffffffffffffffffffffffff8203611234576112336111c8565b5b60018201905091905056fea2646970667358221220bf365ae18818816849c76a555107212f8439420ce335faf9bfd8342c4ef608f964736f6c63430008130033",
  "linkReferences": {},
  "deployedLinkReferences": {}
}