{
  "_format": "hh-sol-artifact-1",
  "contractName": "EduVerify",
  "sourceName": "contracts/EduVerify.sol",
  "abi": [
    {
      "inputs": [
        {
          "internalType": "address",
          "name": "_admin",
          "type": "address"
        }
      ],
      "stateMutability": "nonpayable",
      "type": "constructor"
    },
    {
      "anonymous": false,
      "inputs": [
        {
          "indexed": true,
          "internalType": "address",
          "name": "student",
          "type": "address"
        },
        {
          "indexed": false,
          "internalType": "string",
          "name": "srn",
          "type": "string"
        },
        {
          "indexed": false,
          "internalType": "string",
          "name": "course",
          "type": "string"
        },
        {
          "indexed": false,
          "internalType": "string",
          "name": "institution",
          "type": "string"
        }
      ],
      "name": "CredentialIssued",
      "type": "event"
    },
    {
      "anonymous": false,
      "inputs": [
        {
          "indexed": true,
          "internalType": "address",
          "name": "student",
          "type": "address"
        }
      ],
      "name": "CredentialRevoked",
      "type": "event"
    },
    {
      "inputs": [],
      "name": "admin",
      "outputs": [
        {
          "internalType": "address",
          "name": "",
          "type": "address"
        }
      ],
      "stateMutability": "view",
      "type": "function"
    },
    {
      "inputs": [
        {
          "internalType": "address",
          "name": "",
          "type": "address"
        }
      ],
      "name": "credentials",
      "outputs": [
        {
          "internalType": "string",
          "name": "srn",
          "type": "string"
        },
        {
          "internalType": "string",
          "name": "name",
          "type": "string"
        },
        {
          "internalType": "string",
          "name": "course",
          "type": "string"
        },
        {
          "internalType": "string",
          "name": "institution",
          "type": "string"
        },
        {
          "internalType": "uint256",
          "name": "issueDate",
          "type": "uint256"
        },
        {
          "internalType": "bool",
          "name": "isValid",
          "type": "bool"
        }
      ],
      "stateMutability": "view",
      "type": "function"
    },
    {
      "inputs": [
        {
          "internalType": "address",
          "name": "student",
          "type": "address"
        }
      ],
      "name": "getCredential",
      "outputs": [
        {
          "components": [
            {
              "internalType": "string",
              "name": "srn",
              "type": "string"
            },
            {
              "internalType": "string",
              "name": "name",
              "type": "string"
            },
            {
              "internalType": "string",
              "name": "course",
              "type": "string"
            },
            {
              "internalType": "string",
              "name": "institution",
              "type": "string"
            },
            {
              "internalType": "uint256",
              "name": "issueDate",
              "type": "uint256"
            },
            {
              "internalType": "bool",
              "name": "isValid",
              "type": "bool"
            }
          ],
          "internalType": "struct EduVerify.Credential",
          "name": "",
          "type": "tuple"
        }
      ],
      "stateMutability": "view",
      "type": "function"
    },
    {
      "inputs": [
        {
          "internalType": "string",
          "name": "srn",
          "type": "string"
        }
      ],
      "name": "isValidSRN",
      "outputs": [
        {
          "internalType": "bool",
          "name": "",
          "type": "bool"
        }
      ],
      "stateMutability": "pure",
      "type": "function"
    },
    {
      "inputs": [
        {
          "internalType": "address",
          "name": "student",
          "type": "address"
        },
        {
          "internalType": "string",
          "name": "srn",
          "type": "string"
        },
        {
          "internalType": "string",
          "name": "name",
          "type": "string"
        },
        {
          "internalType": "string",
          "name": "course",
          "type": "string"
        },
        {
          "internalType": "string",
          "name": "institution",
          "type": "string"
        }
      ],
      "name": "issueCredential",
      "outputs": [],
      "stateMutability": "nonpayable",
      "type": "function"
    },
    {
      "inputs": [
        {
          "internalType": "address",
          "name": "student",
          "type": "address"
        }
      ],
      "name": "revokeCredential",
      "outputs": [],
      "stateMutability": "nonpayable",
      "type": "function"
    }
  ],
  "bytecode": "0x60806040523480156200001157600080fd5b506040516200174f3803806200174f8339818101604052810190620000379190620000e9565b80600160006101000a81548173ffffffffffffffffffffffffffffffffffffffff021916908373ffffffffffffffffffffffffffffffffffffffff160217905550506200011b565b600080fd5b600073ffffffffffffffffffffffffffffffffffffffff82169050919050565b6000620000b18262000084565b9050919050565b620000c381620000a4565b8114620000cf57600080fd5b50565b600081519050620000e381620000b8565b92915050565b6000602082840312156200010257620001016200007f565b5b60006200011284828501620000d2565b91505092915050565b611624806200012b6000396000f3fe608060405234801561001057600080fd5b50600436106100625760003560e01c80631dee2fdf146100675780636016dd4a14610083578063638bf77e146100b8578063ccdad14b146100d4578063f851a44014610104578063fde025ae14610122575b600080fd5b610081600480360381019061007c9190610bb6565b610152565b005b61009d60048036038101906100989190610bb6565b610282565b6040516100af96959493929190610ca7565b60405180910390f35b6100d260048036038101906100cd9190610e59565b6104eb565b005b6100ee60048036038101906100e99190610bb6565b61070f565b6040516100fb919061104a565b60405180910390f35b61010c6109d4565b604051610119919061107b565b60405180910390f35b61013c60048036038101906101379190611096565b6109fa565b60405161014991906110df565b60405180910390f35b600160009054906101000a900473ffffffffffffffffffffffffffffffffffffffff1673ffffffffffffffffffffffffffffffffffffffff163373ffffffffffffffffffffffffffffffffffffffff16146101e2576040517f08c379a00000000000000000000000000000000000000000000000000000000081526004016101d99061116c565b60405180910390fd5b60008060008373ffffffffffffffffffffffffffffffffffffffff1673ffffffffffffffffffffffffffffffffffffffff16815260200190815260200160002060050160006101000a81548160ff0219169083151502179055508073ffffffffffffffffffffffffffffffffffffffff167f4fc96fe98b4271e4b4b55ada79755e0e3fe3f648a2857c2de602e83a25a8ee5760405160405180910390a250565b60006020528060005260406000206000915090508060000180546102a5906111bb565b80601f01602080910402602001604051908101604052809291908181526020018280546102d1906111bb565b801561031e5780601f106102f35761010080835404028352916020019161031e565b820191906000526020600020905b81548152906001019060200180831161030157829003601f168201915b505050505090806001018054610333906111bb565b80601f016020809104026020016040519081016040528092919081815260200182805461035f906111bb565b80156103ac5780601f10610381576101008083540402835291602001916103ac565b820191906000526020600020905b81548152906001019060200180831161038f57829003601f168201915b5050505050908060020180546103c1906111bb565b80601f01602080910402602001604051908101604052809291908181526020018280546103ed906111bb565b801561043a5780601f1061040f5761010080835404028352916020019161043a565b820191906000526020600020905b81548152906001019060200180831161041d57829003601f168201915b50505050509080600301805461044f906111bb565b80601f016020809104026020016040519081016040528092919081815260200182805461047b906111bb565b80156104c85780601f1061049d576101008083540402835291602001916104c8565b820191906000526020600020905b8154815290600101906020018083116104ab57829003601f168201915b5050505050908060040154908060050160009054906101000a900460ff16905086565b600160009054906101000a900473ffffffffffffffffffffffffffffffffffffffff1673ffffffffffffffffffffffffffffffffffffffff163373ffffffffffffffffffffffffffffffffffffffff161461057b576040517f08c379a00000000000000000000000000000000000000000000000000000000081526004016105729061116c565b60405180910390fd5b610584846109fa565b6105c3576040517f08c379a00000000000000000000000000000000000000000000000000000000081526004016105ba9061125e565b60405180910390fd5b6040518060c00160405280858152602001848152602001838152602001828152602001428152602001600115158152506000808773ffffffffffffffffffffffffffffffffffffffff1673ffffffffffffffffffffffffffffffffffffffff1681526020019081526020016000206000820151816000019081610646919061142a565b50602082015181600101908161065c919061142a565b506040820151816002019081610672919061142a565b506060820151816003019081610688919061142a565b506080820151816004015560a08201518160050160006101000a81548160ff0219169083151502179055509050508473ffffffffffffffffffffffffffffffffffffffff167fee1de36c11a172cb074ad178ec6fd447ca52619021aea8eca02ec83f77de10fd858484604051610700939291906114fc565b60405180910390a25050505050565b610717610b0c565b6000808373ffffffffffffffffffffffffffffffffffffffff1673ffffffffffffffffffffffffffffffffffffffff1681526020019081526020016000206040518060c0016040529081600082018054610770906111bb565b80601f016020809104026020016040519081016040528092919081815260200182805461079c906111bb565b80156107e95780601f106107be576101008083540402835291602001916107e9565b820191906000526020600020905b8154815290600101906020018083116107cc57829003601f168201915b50505050508152602001600182018054610802906111bb565b80601f016020809104026020016040519081016040528092919081815260200182805461082e906111bb565b801561087b5780601f106108505761010080835404028352916020019161087b565b820191906000526020600020905b81548152906001019060200180831161085e57829003601f168201915b50505050508152602001600282018054610894906111bb565b80601f01602080910402602001604051908101604052809291908181526020018280546108c0906111bb565b801561090d5780601f106108e25761010080835404028352916020019161090d565b820191906000526020600020905b8154815290600101906020018083116108f057829003601f168201915b50505050508152602001600382018054610926906111bb565b80601f0160208091040260200160405190810160405280929190818152602001828054610952906111bb565b801561099f5780601f106109745761010080835404028352916020019161099f565b820191906000526020600020905b81548152906001019060200180831161098257829003601f168201915b50505050508152602001600482015481526020016005820160009054906101000a900460ff1615151515815250509050919050565b600160009054906101000a900473ffffffffffffffffffffffffffffffffffffffff1681565b60008082905060006040518060400160405280600881526020017f50455332554732320000000000000000000000000000000000000000000000008152509050805182511015610a4f57600092505050610b07565b60005b8151811015610aff57818181518110610a6e57610a6d611548565b5b602001015160f81c60f81b7effffffffffffffffffffffffffffffffffffffffffffffffffffffffffffff1916838281518110610aae57610aad611548565b5b602001015160f81c60f81b7effffffffffffffffffffffffffffffffffffffffffffffffffffffffffffff191614610aec5760009350505050610b07565b8080610af7906115a6565b915050610a52565b506001925050505b919050565b6040518060c0016040528060608152602001606081526020016060815260200160608152602001600081526020016000151581525090565b6000604051905090565b600080fd5b600080fd5b600073ffffffffffffffffffffffffffffffffffffffff82169050919050565b6000610b8382610b58565b9050919050565b610b9381610b78565b8114610b9e57600080fd5b50565b600081359050610bb081610b8a565b92915050565b600060208284031215610bcc57610bcb610b4e565b5b6000610bda84828501610ba1565b91505092915050565b600081519050919050565b600082825260208201905092915050565b60005b83811015610c1d578082015181840152602081019050610c02565b60008484015250505050565b6000601f19601f8301169050919050565b6000610c4582610be3565b610c4f8185610bee565b9350610c5f818560208601610bff565b610c6881610c29565b840191505092915050565b6000819050919050565b610c8681610c73565b82525050565b60008115159050919050565b610ca181610c8c565b82525050565b600060c0820190508181036000830152610cc18189610c3a565b90508181036020830152610cd58188610c3a565b90508181036040830152610ce98187610c3a565b90508181036060830152610cfd8186610c3a565b9050610d0c6080830185610c7d565b610d1960a0830184610c98565b979650505050505050565b600080fd5b600080fd5b7f4e487b7100000000000000000000000000000000000000000000000000000000600052604160045260246000fd5b610d6682610c29565b810181811067ffffffffffffffff82111715610d8557610d84610d2e565b5b80604052505050565b6000610d98610b44565b9050610da48282610d5d565b919050565b600067ffffffffffffffff821115610dc457610dc3610d2e565b5b610dcd82610c29565b9050602081019050919050565b82818337600083830152505050565b6000610dfc610df784610da9565b610d8e565b905082815260208101848484011115610e1857610e17610d29565b5b610e23848285610dda565b509392505050565b600082601f830112610e4057610e3f610d24565b5b8135610e50848260208601610de9565b91505092915050565b600080600080600060a08688031215610e7557610e74610b4e565b5b6000610e8388828901610ba1565b955050602086013567ffffffffffffffff811115610ea457610ea3610b53565b5b610eb088828901610e2b565b945050604086013567ffffffffffffffff811115610ed157610ed0610b53565b5b610edd88828901610e2b565b935050606086013567ffffffffffffffff811115610efe57610efd610b53565b5b610f0a88828901610e2b565b925050608086013567ffffffffffffffff811115610f2b57610f2a610b53565b5b610f3788828901610e2b565b9150509295509295909350565b600082825260208201905092915050565b6000610f6082610be3565b610f6a8185610f44565b9350610f7a818560208601610bff565b610f8381610c29565b840191505092915050565b610f9781610c73565b82525050565b610fa681610c8c565b82525050565b600060c0830160008301518482036000860152610fc98282610f55565b91505060208301518482036020860152610fe38282610f55565b91505060408301518482036040860152610ffd8282610f55565b915050606083015184820360608601526110178282610f55565b915050608083015161102c6080860182610f8e565b5060a083015161103f60a0860182610f9d565b508091505092915050565b600060208201905081810360008301526110648184610fac565b905092915050565b61107581610b78565b82525050565b6000602082019050611090600083018461106c565b92915050565b6000602082840312156110ac576110ab610b4e565b5b600082013567ffffffffffffffff8111156110ca576110c9610b53565b5b6110d684828501610e2b565b91505092915050565b60006020820190506110f46000830184610c98565b92915050565b7f4f6e6c792061646d696e2063616e20706572666f726d2074686973206163746960008201527f6f6e000000000000000000000000000000000000000000000000000000000000602082015250565b6000611156602283610bee565b9150611161826110fa565b604082019050919050565b6000602082019050818103600083015261118581611149565b9050919050565b7f4e487b7100000000000000000000000000000000000000000000000000000000600052602260045260246000fd5b600060028204905060018216806111d357607f821691505b6020821081036111e6576111e561118c565b5b50919050565b7f496e76616c69642053524e2e204d75737420737461727420776974682050455360008201527f3255473232000000000000000000000000000000000000000000000000000000602082015250565b6000611248602583610bee565b9150611253826111ec565b604082019050919050565b600060208201905081810360008301526112778161123b565b9050919050565b60008190508160005260206000209050919050565b60006020601f8301049050919050565b600082821b905092915050565b6000600883026112e07fffffffffffffffffffffffffffffffffffffffffffffffffffffffffffffffff826112a3565b6112ea86836112a3565b95508019841693508086168417925050509392505050565b6000819050919050565b600061132761132261131d84610c73565b611302565b610c73565b9050919050565b6000819050919050565b6113418361130c565b61135561134d8261132e565b8484546112b0565b825550505050565b600090565b61136a61135d565b611375818484611338565b505050565b5b818110156113995761138e600082611362565b60018101905061137b565b5050565b601f8211156113de576113af8161127e565b6113b884611293565b810160208510156113c7578190505b6113db6113d385611293565b83018261137a565b50505b505050565b600082821c905092915050565b6000611401600019846008026113e3565b1980831691505092915050565b600061141a83836113f0565b9150826002028217905092915050565b61143382610be3565b67ffffffffffffffff81111561144c5761144b610d2e565b5b61145682546111bb565b61146182828561139d565b600060209050601f8311600181146114945760008415611482578287015190505b61148c858261140e565b8655506114f4565b601f1984166114a28661127e565b60005b828110156114ca578489015182556001820191506020850194506020810190506114a5565b868310156114e757848901516114e3601f8916826113f0565b8355505b6001600288020188555050505b505050505050565b600060608201905081810360008301526115168186610c3a565b9050818103602083015261152a8185610c3a565b9050818103604083015261153e8184610c3a565b9050949350505050565b7f4e487b7100000000000000000000000000000000000000000000000000000000600052603260045260246000fd5b7f4e487b7100000000000000000000000000000000000000000000000000000000600052601160045260246000fd5b60006115b182610c73565b91507fffffffffffffffffffffffffffffffffffffffffffffffffffffffffffffffff82036115e3576115e2611577565b5b60018201905091905056fea264697066735822122035439d50898bf2758f4e7b7666a7b8a6979028f02ee3d62d608a931e520a704e64736f6c63430008130033",
  "linkReferences": {},
  "deployedLinkReferences": {}
}