{
    "_format": "hh-sol-artifact-1",
    "contractName": "InstitutionRegistry",
    "sourceName": "contracts/InstitutionRegistry.sol",
    "abi": [
        {
            "inputs": [],
            "stateMutability": "nonpayable",
            "type": "constructor"
        },
        {
            "anonymous": false,
            "inputs": [
                {
                    "indexed": true,
                    "internalType": "address",
                    "name": "institutionAddress",
                    "type": "address"
                },
                {
                    "indexed": false,
                    "internalType": "string",
                    "name": "name",
                    "type": "string"
                },
                {
                    "indexed": false,
                    "internalType": "string",
                    "name": "location",
                    "type": "string"
                }
            ],
            "name": "InstitutionAdded",
            "type": "event"
        },
        {
            "anonymous": false,
            "inputs": [
                {
                    "indexed": true,
                    "internalType": "address",
                    "name": "institutionAddress",
                    "type": "address"
                }
            ],
            "name": "InstitutionRemoved",
            "type": "event"
        },
        {
            "inputs": [
                {
                    "internalType": "address",
                    "name": "",
                    "type": "address"
                }
            ],
            "name": "institutions",
            "outputs": [
                {
                    "internalType": "string",
                    "name": "name",
                    "type": "string"
                },
                {
                    "internalType": "string",
                    "name": "location",
                    "type": "string"
                },
                {
                    "internalType": "bool",
                    "name": "isRegistered",
                    "type": "bool"
                }
            ],
            "stateMutability": "view",
            "type": "function"
        },
        {
            "inputs": [
                {
                    "internalType": "address",
                    "name": "_institutionAddress",
                    "type": "address"
                }
            ],
            "name": "isInstitutionRegistered",
            "outputs": [
                {
                    "internalType": "bool",
                    "name": "",
                    "type": "bool"
                }
            ],
            "stateMutability": "view",
            "type": "function"
        },
        {
            "inputs": [],
            "name": "owner",
            "outputs": [
                {
                    "internalType": "address",
                    "name": "",
                    "type": "address"
                }
            ],
            "stateMutability": "view",
            "type": "function"
        },
        {
            "inputs": [
                {
                    "internalType": "address",
                    "name": "_institutionAddress",
                    "type": "address"
                },
                {
                    "internalType": "string",
                    "name": "_name",
                    "type": "string"
                },
                {
                    "internalType": "string",
                    "name": "_location",
                    "type": "string"
                }
            ],
            "name": "registerInstitution",
            "outputs": [],
            "stateMutability": "nonpayable",
            "type": "function"
        },
        {
            "inputs": [
                {
                    "internalType": "address",
                    "name": "_institutionAddress",
                    "type": "address"
                }
            ],
            "name": "removeInstitution",
            "outputs": [],
            "stateMutability": "nonpayable",
            "type": "function"
        }
    ],
    "bytecode": "0x608060405234801561001057600080fd5b50336000806101000a81548173ffffffffffffffffffffffffffffffffffffffff021916908373ffffffffffffffffffffffffffffffffffffffff160217905550610f5a806100606000396000f3fe608060405234801561001057600080fd5b50600436106100575760003560e01c8063226acd461461005c57806383c0e354146100785780638747d5ed146100a85780638da5cb5b146100c4578063b2d9767f146100e2575b600080fd5b610076600480360381019061007191906108e5565b610114565b005b610092600480360381019061008d9190610970565b610333565b60405161009f91906109b8565b60405180910390f35b6100c260048036038101906100bd9190610970565b61038c565b005b6100cc610565565b6040516100d991906109e2565b60405180910390f35b6100fc60048036038101906100f79190610970565b610589565b60405161010b93929190610a7c565b60405180910390f35b60008054906101000a900473ffffffffffffffffffffffffffffffffffffffff1673ffffffffffffffffffffffffffffffffffffffff163373ffffffffffffffffffffffffffffffffffffffff16146101a2576040517f08c379a000000000000000000000000000000000000000000000000000000000815260040161019990610b0d565b60405180910390fd5b600160008473ffffffffffffffffffffffffffffffffffffffff1673ffffffffffffffffffffffffffffffffffffffff16815260200190815260200160002060020160009054906101000a900460ff1615610232576040517f08c379a000000000000000000000000000000000000000000000000000000000815260040161022990610b79565b60405180910390fd5b604051806060016040528083815260200182815260200160011515815250600160008573ffffffffffffffffffffffffffffffffffffffff1673ffffffffffffffffffffffffffffffffffffffff16815260200190815260200160002060008201518160000190816102a49190610daf565b5060208201518160010190816102ba9190610daf565b5060408201518160020160006101000a81548160ff0219169083151502179055509050508273ffffffffffffffffffffffffffffffffffffffff167fe141b5b017e362d3c1286cb0f1263c9b2182ad572bf605b315122d220f3c4cb68383604051610326929190610e81565b60405180910390a2505050565b6000600160008373ffffffffffffffffffffffffffffffffffffffff1673ffffffffffffffffffffffffffffffffffffffff16815260200190815260200160002060020160009054906101000a900460ff169050919050565b60008054906101000a900473ffffffffffffffffffffffffffffffffffffffff1673ffffffffffffffffffffffffffffffffffffffff163373ffffffffffffffffffffffffffffffffffffffff161461041a576040517f08c379a000000000000000000000000000000000000000000000000000000000815260040161041190610b0d565b60405180910390fd5b600160008273ffffffffffffffffffffffffffffffffffffffff1673ffffffffffffffffffffffffffffffffffffffff16815260200190815260200160002060020160009054906101000a900460ff166104a9576040517f08c379a00000000000000000000000000000000000000000000000000000000081526004016104a090610f04565b60405180910390fd5b600160008273ffffffffffffffffffffffffffffffffffffffff1673ffffffffffffffffffffffffffffffffffffffff168152602001908152602001600020600080820160006104f991906106d0565b60018201600061050991906106d0565b6002820160006101000a81549060ff021916905550508073ffffffffffffffffffffffffffffffffffffffff167f1b0b878d06167e60e076b932df41de2b519d804c80445961e705ffbc98091f8760405160405180910390a250565b60008054906101000a900473ffffffffffffffffffffffffffffffffffffffff1681565b60016020528060005260406000206000915090508060000180546105ac90610bc8565b80601f01602080910402602001604051908101604052809291908181526020018280546105d890610bc8565b80156106255780601f106105fa57610100808354040283529160200191610625565b820191906000526020600020905b81548152906001019060200180831161060857829003601f168201915b50505050509080600101805461063a90610bc8565b80601f016020809104026020016040519081016040528092919081815260200182805461066690610bc8565b80156106b35780601f10610688576101008083540402835291602001916106b3565b820191906000526020600020905b81548152906001019060200180831161069657829003601f168201915b5050505050908060020160009054906101000a900460ff16905083565b5080546106dc90610bc8565b6000825580601f106106ee575061070d565b601f01602090049060005260206000209081019061070c9190610710565b5b50565b5b80821115610729576000816000905550600101610711565b5090565b6000604051905090565b600080fd5b600080fd5b600073ffffffffffffffffffffffffffffffffffffffff82169050919050565b600061076c82610741565b9050919050565b61077c81610761565b811461078757600080fd5b50565b60008135905061079981610773565b92915050565b600080fd5b600080fd5b6000601f19601f8301169050919050565b7f4e487b7100000000000000000000000000000000000000000000000000000000600052604160045260246000fd5b6107f2826107a9565b810181811067ffffffffffffffff82111715610811576108106107ba565b5b80604052505050565b600061082461072d565b905061083082826107e9565b919050565b600067ffffffffffffffff8211156108505761084f6107ba565b5b610859826107a9565b9050602081019050919050565b82818337600083830152505050565b600061088861088384610835565b61081a565b9050828152602081018484840111156108a4576108a36107a4565b5b6108af848285610866565b509392505050565b600082601f8301126108cc576108cb61079f565b5b81356108dc848260208601610875565b91505092915050565b6000806000606084860312156108fe576108fd610737565b5b600061090c8682870161078a565b935050602084013567ffffffffffffffff81111561092d5761092c61073c565b5b610939868287016108b7565b925050604084013567ffffffffffffffff81111561095a5761095961073c565b5b610966868287016108b7565b9150509250925092565b60006020828403121561098657610985610737565b5b60006109948482850161078a565b91505092915050565b60008115159050919050565b6109b28161099d565b82525050565b60006020820190506109cd60008301846109a9565b92915050565b6109dc81610761565b82525050565b60006020820190506109f760008301846109d3565b92915050565b600081519050919050565b600082825260208201905092915050565b60005b83811015610a37578082015181840152602081019050610a1c565b60008484015250505050565b6000610a4e826109fd565b610a588185610a08565b9350610a68818560208601610a19565b610a71816107a9565b840191505092915050565b60006060820190508181036000830152610a968186610a43565b90508181036020830152610aaa8185610a43565b9050610ab960408301846109a9565b949350505050565b7f4f6e6c79206f776e65722063616e20646f207468697300000000000000000000600082015250565b6000610af7601683610a08565b9150610b0282610ac1565b602082019050919050565b60006020820190508181036000830152610b2681610aea565b9050919050565b7f496e737469747574696f6e20616c726561647920726567697374657265640000600082015250565b6000610b63601e83610a08565b9150610b6e82610b2d565b602082019050919050565b60006020820190508181036000830152610b9281610b56565b9050919050565b7f4e487b7100000000000000000000000000000000000000000000000000000000600052602260045260246000fd5b60006002820490506001821680610be057607f821691505b602082108103610bf357610bf2610b99565b5b50919050565b60008190508160005260206000209050919050565b60006020601f8301049050919050565b600082821b905092915050565b600060088302610c5b7fffffffffffffffffffffffffffffffffffffffffffffffffffffffffffffffff82610c1e565b610c658683610c1e565b95508019841693508086168417925050509392505050565b6000819050919050565b6000819050919050565b6000610cac610ca7610ca284610c7d565b610c87565b610c7d565b9050919050565b6000819050919050565b610cc683610c91565b610cda610cd282610cb3565b848454610c2b565b825550505050565b600090565b610cef610ce2565b610cfa818484610cbd565b505050565b5b81811015610d1e57610d13600082610ce7565b600181019050610d00565b5050565b601f821115610d6357610d3481610bf9565b610d3d84610c0e565b81016020851015610d4c578190505b610d60610d5885610c0e565b830182610cff565b50505b505050565b600082821c905092915050565b6000610d8660001984600802610d68565b1980831691505092915050565b6000610d9f8383610d75565b9150826002028217905092915050565b610db8826109fd565b67ffffffffffffffff811115610dd157610dd06107ba565b5b610ddb8254610bc8565b610de6828285610d22565b600060209050601f831160018114610e195760008415610e07578287015190505b610e118582610d93565b865550610e79565b601f198416610e2786610bf9565b60005b82811015610e4f57848901518255600182019150602085019450602081019050610e2a565b86831015610e6c5784890151610e68601f891682610d75565b8355505b6001600288020188555050505b505050505050565b60006040820190508181036000830152610e9b8185610a43565b90508181036020830152610eaf8184610a43565b90509392505050565b7f496e737469747574696f6e206e6f742072656769737465726564000000000000600082015250565b6000610eee601a83610a08565b9150610ef982610eb8565b602082019050919050565b60006020820190508181036000830152610f1d81610ee1565b905091905056fea2646970667358221220d705f002956720a6cb50384caf08ccc7a862f6f7aad20af53cd50838b59bdae364736f6c63430008130033",
    "linkReferences": {},
    "deployedLinkReferences": {}
}