{
    "_format": "hh-sol-artifact-1",
    "contractName": "StudentProfile",
    "sourceName": "contracts/StudentProfile.sol",
    "abi": [
        {
            "anonymous": false,
            "inputs": [
                {
                    "indexed": true,
                    "internalType": "address",
                    "name": "student",
                    "type": "address"
                },
                {
                    "indexed": false,
                    "internalType": "string",
                    "name": "name",
                    "type": "string"
                }
            ],
            "name": "ProfileCreated",
            "type": "event"
        },
        {
            "anonymous": false,
            "inputs": [
                {
                    "indexed": true,
                    "internalType": "address",
                    "name": "student",
                    "type": "address"
                },
                {
                    "indexed": false,
                    "internalType": "string",
                    "name": "name",
                    "type": "string"
                }
            ],
            "name": "ProfileUpdated",
            "type": "event"
        },
        {
            "inputs": [
                {
                    "internalType": "string",
                    "name": "name",
                    "type": "string"
                },
                {
                    "internalType": "string",
                    "name": "email",
                    "type": "string"
                },
                {
                    "internalType": "string",
                    "name": "course",
                    "type": "string"
                },
                {
                    "internalType": "string",
                    "name": "institution",
                    "type": "string"
                },
                {
                    "internalType": "string",
                    "name": "bio",
                    "type": "string"
                }
            ],
            "name": "createProfile",
            "outputs": [],
            "stateMutability": "nonpayable",
            "type": "function"
        },
        {
            "inputs": [
                {
                    "internalType": "address",
                    "name": "student",
                    "type": "address"
                }
            ],
            "name": "getProfile",
            "outputs": [
                {
                    "components": [
                        {
                            "internalType": "string",
                            "name": "name",
                            "type": "string"
                        },
                        {
                            "internalType": "string",
                            "name": "email",
                            "type": "string"
                        },
                        {
                            "internalType": "string",
                            "name": "course",
                            "type": "string"
                        },
                        {
                            "internalType": "string",
                            "name": "institution",
                            "type": "string"
                        },
                        {
                            "internalType": "string",
                            "name": "bio",
                            "type": "string"
                        },
                        {
                            "internalType": "bool",
                            "name": "exists",
                            "type": "bool"
                        }
                    ],
                    "internalType": "struct StudentProfile.Profile",
                    "name": "",
                    "type": "tuple"
                }
            ],
            "stateMutability": "view",
            "type": "function"
        },
        {
            "inputs": [
                {
                    "internalType": "string",
                    "name": "name",
                    "type": "string"
                },
                {
                    "internalType": "string",
                    "name": "email",
                    "type": "string"
                },
                {
                    "internalType": "string",
                    "name": "course",
                    "type": "string"
                },
                {
                    "internalType": "string",
                    "name": "institution",
                    "type": "string"
                },
                {
                    "internalType": "string",
                    "name": "bio",
                    "type": "string"
                }
            ],
            "name": "updateProfile",
            "outputs": [],
            "stateMutability": "nonpayable",
            "type": "function"
        }
    ],
    "bytecode": "0x608060405234801561001057600080fd5b506111a1806100206000396000f3fe608060405234801561001057600080fd5b50600436106100415760003560e01c80630f53a4701461004657806337b3cd8a14610076578063b043e03214610092575b600080fd5b610060600480360381019061005b91906108f8565b6100ae565b60405161006d9190610a75565b60405180910390f35b610090600480360381019061008b9190610bcc565b610489565b005b6100ac60048036038101906100a79190610bcc565b61066c565b005b6100b661084e565b6000808373ffffffffffffffffffffffffffffffffffffffff1673ffffffffffffffffffffffffffffffffffffffff16815260200190815260200160002060050160009054906101000a900460ff16610144576040517f08c379a000000000000000000000000000000000000000000000000000000000815260040161013b90610d30565b60405180910390fd5b6000808373ffffffffffffffffffffffffffffffffffffffff1673ffffffffffffffffffffffffffffffffffffffff1681526020019081526020016000206040518060c001604052908160008201805461019d90610d7f565b80601f01602080910402602001604051908101604052809291908181526020018280546101c990610d7f565b80156102165780601f106101eb57610100808354040283529160200191610216565b820191906000526020600020905b8154815290600101906020018083116101f957829003601f168201915b5050505050815260200160018201805461022f90610d7f565b80601f016020809104026020016040519081016040528092919081815260200182805461025b90610d7f565b80156102a85780601f1061027d576101008083540402835291602001916102a8565b820191906000526020600020905b81548152906001019060200180831161028b57829003601f168201915b505050505081526020016002820180546102c190610d7f565b80601f01602080910402602001604051908101604052809291908181526020018280546102ed90610d7f565b801561033a5780601f1061030f5761010080835404028352916020019161033a565b820191906000526020600020905b81548152906001019060200180831161031d57829003601f168201915b5050505050815260200160038201805461035390610d7f565b80601f016020809104026020016040519081016040528092919081815260200182805461037f90610d7f565b80156103cc5780601f106103a1576101008083540402835291602001916103cc565b820191906000526020600020905b8154815290600101906020018083116103af57829003601f168201915b505050505081526020016004820180546103e590610d7f565b80601f016020809104026020016040519081016040528092919081815260200182805461041190610d7f565b801561045e5780601f106104335761010080835404028352916020019161045e565b820191906000526020600020905b81548152906001019060200180831161044157829003601f168201915b505050505081526020016005820160009054906101000a900460ff1615151515815250509050919050565b6000803373ffffffffffffffffffffffffffffffffffffffff1673ffffffffffffffffffffffffffffffffffffffff16815260200190815260200160002060050160009054906101000a900460ff1615610518576040517f08c379a000000000000000000000000000000000000000000000000000000000815260040161050f90610dfc565b60405180910390fd5b6040518060c00160405280868152602001858152602001848152602001838152602001828152602001600115158152506000803373ffffffffffffffffffffffffffffffffffffffff1673ffffffffffffffffffffffffffffffffffffffff168152602001908152602001600020600082015181600001908161059b9190610fd2565b5060208201518160010190816105b19190610fd2565b5060408201518160020190816105c79190610fd2565b5060608201518160030190816105dd9190610fd2565b5060808201518160040190816105f39190610fd2565b5060a08201518160050160006101000a81548160ff0219169083151502179055509050503373ffffffffffffffffffffffffffffffffffffffff167fbafddecbd1dec1c1afb76d693f1de16901f521bdf29a02438e3e6806c0b8d9488660405161065d91906110dd565b60405180910390a25050505050565b6000803373ffffffffffffffffffffffffffffffffffffffff1673ffffffffffffffffffffffffffffffffffffffff16815260200190815260200160002060050160009054906101000a900460ff166106fa576040517f08c379a00000000000000000000000000000000000000000000000000000000081526004016106f19061114b565b60405180910390fd5b6040518060c00160405280868152602001858152602001848152602001838152602001828152602001600115158152506000803373ffffffffffffffffffffffffffffffffffffffff1673ffffffffffffffffffffffffffffffffffffffff168152602001908152602001600020600082015181600001908161077d9190610fd2565b5060208201518160010190816107939190610fd2565b5060408201518160020190816107a99190610fd2565b5060608201518160030190816107bf9190610fd2565b5060808201518160040190816107d59190610fd2565b5060a08201518160050160006101000a81548160ff0219169083151502179055509050503373ffffffffffffffffffffffffffffffffffffffff167fdd635a4cd84864e37e4479dbfc2ec667acfa473c83c8422a8ac9d9d07599b01c8660405161083f91906110dd565b60405180910390a25050505050565b6040518060c0016040528060608152602001606081526020016060815260200160608152602001606081526020016000151581525090565b6000604051905090565b600080fd5b600080fd5b600073ffffffffffffffffffffffffffffffffffffffff82169050919050565b60006108c58261089a565b9050919050565b6108d5816108ba565b81146108e057600080fd5b50565b6000813590506108f2816108cc565b92915050565b60006020828403121561090e5761090d610890565b5b600061091c848285016108e3565b91505092915050565b600081519050919050565b600082825260208201905092915050565b60005b8381101561095f578082015181840152602081019050610944565b60008484015250505050565b6000601f19601f8301169050919050565b600061098782610925565b6109918185610930565b93506109a1818560208601610941565b6109aa8161096b565b840191505092915050565b60008115159050919050565b6109ca816109b5565b82525050565b600060c08301600083015184820360008601526109ed828261097c565b91505060208301518482036020860152610a07828261097c565b91505060408301518482036040860152610a21828261097c565b91505060608301518482036060860152610a3b828261097c565b91505060808301518482036080860152610a55828261097c565b91505060a0830151610a6a60a08601826109c1565b508091505092915050565b60006020820190508181036000830152610a8f81846109d0565b905092915050565b600080fd5b600080fd5b7f4e487b7100000000000000000000000000000000000000000000000000000000600052604160045260246000fd5b610ad98261096b565b810181811067ffffffffffffffff82111715610af857610af7610aa1565b5b80604052505050565b6000610b0b610886565b9050610b178282610ad0565b919050565b600067ffffffffffffffff821115610b3757610b36610aa1565b5b610b408261096b565b9050602081019050919050565b82818337600083830152505050565b6000610b6f610b6a84610b1c565b610b01565b905082815260208101848484011115610b8b57610b8a610a9c565b5b610b96848285610b4d565b509392505050565b600082601f830112610bb357610bb2610a97565b5b8135610bc3848260208601610b5c565b91505092915050565b600080600080600060a08688031215610be857610be7610890565b5b600086013567ffffffffffffffff811115610c0657610c05610895565b5b610c1288828901610b9e565b955050602086013567ffffffffffffffff811115610c3357610c32610895565b5b610c3f88828901610b9e565b945050604086013567ffffffffffffffff811115610c6057610c5f610895565b5b610c6c88828901610b9e565b935050606086013567ffffffffffffffff811115610c8d57610c8c610895565b5b610c9988828901610b9e565b925050608086013567ffffffffffffffff811115610cba57610cb9610895565b5b610cc688828901610b9e565b9150509295509295909350565b600082825260208201905092915050565b7f50726f66696c6520646f6573206e6f7420657869737400000000000000000000600082015250565b6000610d1a601683610cd3565b9150610d2582610ce4565b602082019050919050565b60006020820190508181036000830152610d4981610d0d565b9050919050565b7f4e487b7100000000000000000000000000000000000000000000000000000000600052602260045260246000fd5b60006002820490506001821680610d9757607f821691505b602082108103610daa57610da9610d50565b5b50919050565b7f50726f66696c6520616c72656164792065786973747300000000000000000000600082015250565b6000610de6601683610cd3565b9150610df182610db0565b602082019050919050565b60006020820190508181036000830152610e1581610dd9565b9050919050565b60008190508160005260206000209050919050565b60006020601f8301049050919050565b600082821b905092915050565b600060088302610e7e7fffffffffffffffffffffffffffffffffffffffffffffffffffffffffffffffff82610e41565b610e888683610e41565b95508019841693508086168417925050509392505050565b6000819050919050565b6000819050919050565b6000610ecf610eca610ec584610ea0565b610eaa565b610ea0565b9050919050565b6000819050919050565b610ee983610eb4565b610efd610ef582610ed6565b848454610e4e565b825550505050565b600090565b610f12610f05565b610f1d818484610ee0565b505050565b5b81811015610f4157610f36600082610f0a565b600181019050610f23565b5050565b601f821115610f8657610f5781610e1c565b610f6084610e31565b81016020851015610f6f578190505b610f83610f7b85610e31565b830182610f22565b50505b505050565b600082821c905092915050565b6000610fa960001984600802610f8b565b1980831691505092915050565b6000610fc28383610f98565b9150826002028217905092915050565b610fdb82610925565b67ffffffffffffffff811115610ff457610ff3610aa1565b5b610ffe8254610d7f565b611009828285610f45565b600060209050601f83116001811461103c576000841561102a578287015190505b6110348582610fb6565b86555061109c565b601f19841661104a86610e1c565b60005b828110156110725784890151825560018201915060208501945060208101905061104d565b8683101561108f578489015161108b601f891682610f98565b8355505b6001600288020188555050505b505050505050565b60006110af82610925565b6110b98185610cd3565b93506110c9818560208601610941565b6110d28161096b565b840191505092915050565b600060208201905081810360008301526110f781846110a4565b905092915050565b7f50726f66696c65206e6f7420666f756e64000000000000000000000000000000600082015250565b6000611135601183610cd3565b9150611140826110ff565b602082019050919050565b6000602082019050818103600083015261116481611128565b905091905056fea2646970667358221220463a0373c511227181c1994705e63452a07f3c282384d029531bc351eb9ab55564736f6c63430008130033",
    "linkReferences": {},
    "deployedLinkReferences": {}
}